:100000000C943A000C9457000C9457000C94570031
:100010000C94B9020C94B5010C9457000C94570041
:100020000C9457000C9457000C9457000C94030345
:100030000C9457000C9457000C94D3020C94570066
:100040000C9457000C9457000C943E020C945700EB
:100050000C9457000C9457000C9457000C945700C4
:100060000C9457000C9457006364696E6F7073753D
:1000700078585B0011241FBECFEFD8E0DEBFCDBFA4
:1000800011E0A0E0B1E0E4E1F9E102C005900D92D9
:10009000AA35B107D9F711E0AAE5B1E001C01D9278
:1000A000A037B107E1F70E944A030C94880C0C9426
:1000B00000009BB19F709BB99BB1807F892B8BB94E
:1000C000299A299A299808951F93182F289A0E94EF
:1000D0005900812F8295807F0E94590080E49FE122
:1000E0000197F1F71F910895CF93DF93EC0102C0C0
:1000F0000E94640089918823D9F7DF91CF910895F8
:100100001F93182F28980E945900812F8295807F75
:100110000E94590080E49FE10197F1F71F91089533
:10012000882319F4862F805802C0862F80540E949D
:100130008000089584B1836084B98AB1806F8AB9E0
:1001400080E69AEE0197F1F780E30E94590080E281
:100150009EE40197F1F780E30E94590080EE91E060
:100160000197F1F780E30E94590080E20E94590054
:1001700080E49FE10197F1F788E20E9480008FE020
:100180000E94800008953B9A80E699E00197F1F77C
:100190003B988CE091E00197F1F7339B02C080E03F
:1001A0000895339BFECF88EC90E00197F1F781E052
:1001B00008953B9A8AE08A95F1F73B9880EF90E0AA
:1001C0000197F1F708953B9A80EF90E00197F1F7DE
:1001D0003B988AE08A95F1F708950F931F93082FB3
:1001E00018E000FF03C00E94D90002C00E94E30093
:1001F000115011F00695F5CF1F910F9108950E94AF
:10020000C300882331F08CEC0E94ED0084E40E944E
:10021000ED0008953B9A8AE08A95F1F73B9885E3D3
:100220008A95F1F786B1E8ECF0E03197F1F7887044
:100230000895FF920F931F9388E0F82E00E011E0DD
:100240000E940A018111012BFA9411F0110FF8CFCD
:10025000802F1F910F91FF900895EF92FF920F93BF
:100260001F93DF93CF93CDB7DEB729970FB6F894DE
:10027000DEBF0FBECDBF3B9843980E94C3008823CA
:1002800009F442C08CEC0E94ED008EEB0E94ED0060
:100290008E010F5F1F4F9AE0E92EF12CEC0EFD1E30
:1002A0000E941901F80181938F01EE15FF05C1F736
:1002B0000E94C300882341F18CEC0E94ED008EE483
:1002C0000E94ED008B810E94ED008C810E94ED0068
:1002D0008FE70E94ED0080E991E00197F1F70E941D
:1002E000C300882389F08CEC0E94ED0088E40E9412
:1002F000ED0088EC90E020E931E0F9013197F1F769
:100300000197D9F781E001C080E029960FB6F894F3
:10031000DEBF0FBECDBFCF91DF911F910F91FF9038
:10032000EF9008951F93CF93DF93EC010E940A0191
:100330008823B9F00E94C300882391F08CEC0E94BE
:10034000ED008EEB0E94ED000E94190188830E944F
:100350001901898310E00E9419011F5F1730D9F736
:1003600081E0DF91CF911F9108951F920F920FB6F8
:100370000F9211248F939F9389B1982F947090932B
:10038000650188708093610180916201882369F41E
:1003900080916501882311F081E02EC08091610178
:1003A000882309F441C082E034C080916201813029
:1003B00069F480916501882319F4109263012BC0C0
:1003C00080916101882381F183E016C080916201F0
:1003D000823069F480916501882311F083E019C0AF
:1003E00080916101882301F51092630107C080911B
:1003F0006501882349F482E08093630180910001C4
:100400009091010101960CC080916101882361F0F7
:1004100081E0809363018091000190910101019737
:10042000909301018093000190916301809162019A
:10043000981739F081E08093640180916301809383
:1004400062018091000190910101C2971CF482E346
:1004500090E009C080910001909101018B359105D8
:1004600034F08AE590E090930101809300019F9120
:100470008F910F900FBE0F901F9018951F920F92A3
:100480000FB60F9211242F938F939F93EF93FF93A7
:100490002091C600203451F481E080935A011092DB
:1004A0005D0110925C0110925B0151C02B3211F082
:1004B0002D3269F480915A01882309F448C0809153
:1004C0005C0190915D01892B09F03FC015C0822F1E
:1004D00080538A3078F580915A018823C1F1809148
:1004E0005C0190915D0118161906BCF480915C01C5
:1004F00090915D0104978CF4E0915C01F0915D01B5
:10050000EA59FE4F208380915C0190915D01019634
:1005100090935D0180935C011AC080915C01909181
:100520005D01892B91F080915C0190915D010497B0
:1005300074F00BC0233259F480915C0190915D01FD
:1005400003972CF081E080935B0110925A01809117
:100550005A01882321F410925D0110925C01FF91F1
:10056000EF919F918F912F910F900FBE0F901F9041
:1005700018951F920F920FB60F9211248F933199F5
:1005800005C081E080936C0110926D01329905C025
:1005900081E080936D0110926C018F910F900FBEDE
:1005A0000F901F9018951F920F920FB60F92112463
:1005B0008F939F9380915E0190915F01019690933C
:1005C0005F0180935E01359A80915E0190915F0199
:1005D0008A3F910589F481E080936001359885B563
:1005E0008E7F85BD85B58D7F85BD85B58B7F85BDAE
:1005F00010925F0110925E019F918F910F900FBE3C
:100600000F901F9018951F920F920FB60F92112402
:100610008F939F9385B190E1892785B99F918F91A1
:100620000F900FBE0F901F90189584B5886084BD01
:10063000EEE6F0E08081826080838AEF87BD0895D6
:10064000E1E8F0E0808188608083EFE6F0E080817F
:100650008260808382E19AE790938900809388008A
:100660000895E0EBF0E08081836080838081806882
:1006700080838CE08093B300E1EBF0E080818760C1
:1006800080830895982F8091C00085FFFCCF9093C0
:10069000C60008952F923F924F925F926F927F9281
:1006A0008F929F92AF92BF92CF92DF92EF92FF9282
:1006B0000F931F93DF93CF93CDB7DEB761970FB63C
:1006C000F894DEBF0FBECDBF3B98439A5298539823
:1006D0005A9A5B9A3998419A3A98429A809168005E
:1006E00082608093680080916800846080936800D5
:1006F00080916C00826080936C0080916C008460BB
:1007000080936C005098589A239A249A259A3D9A7F
:100710003C9A449887E690E09093C5008093C4008B
:100720008091C10088618093C10086E08093C200FF
:100730008091C10080688093C10084B5886084BDC9
:1007400080916E00826080936E008AEF87BD8091F9
:10075000810088608093810080916F008260809327
:100760006F0082E19AE790938900809388000E944D
:1007700031038091680084608093680080916D00EF
:10078000846080936D0080916D00886080936D001F
:1007900078940E949A000E942D0181E00E948000BE
:1007A00080E060E00E94900082E091E00E9474008E
:1007B00081E060E00E94900080E191E00E9474007E
:1007C00080E29EE420E931E0F9013197F1F70197E9
:1007D000D9F781E00E94800089B1982F947090939E
:1007E000650188708093610180916101882339F4EB
:1007F00080916501882319F41092620117C08091DD
:100800006101882331F480916501882311F081E032
:100810000BC080916101882331F0809165018823AC
:1008200011F482E001C083E0809362010E942D01F7
:10083000882321F48BE191E00E9474000E94FF0064
:1008400088EE93E00E94250B982F8253893208F09E
:1008500092E3892F90E0909301018093000180E062
:1008600090E068E070E00E945506709561957F4FBA
:10087000262F2E5C2F8783E0482E512C4C0E5D1EB8
:1008800003E0802E912C1EE2A12E11E0B12EB6E0E5
:10089000CB2ED12CCC0EDD1EA9E06A2E712C6C0E55
:1008A0007D1EAE01415F5F4F598B488BF6E62F2EC0
:1008B000F1E03F2ECE0101960E949201882309F4B7
:1008C00046C181E00E948000898190E0FA80EE2498
:1008D0008E299F299C01E3E0220F331FEA95E1F75F
:1008E000880F991F280F391F64E0369527956A9560
:1008F000E1F7AAE5B0E02A9FC0012B9F900D3A9F37
:10090000900D112465E070E00E9441068B010058B3
:10091000134FC80164E670E00E94410670936F01B6
:1009200060936E0180916E0190916F01EDB7FEB7FB
:1009300038970FB6F894FEBF0FBEEDBF3196ADB736
:10094000BEB712965C924E92119793828282B582C4
:10095000A482978386830E946806EDB7FEB7389617
:100960000FB6F894FEBF0FBEEDBF80E060E00E94BE
:100970009000C2010E94740080E062E00E9490003A
:1009800081E391E00E9474002DB73EB728503040BB
:100990000FB6F8943EBF0FBE2DBFEDB7FEB7319630
:1009A000ADB7BEB71296DC92CE9211979382828237
:1009B000B582A482C8016AE070E00E944106CB01C2
:1009C0006AE070E00E944106978386830E94680671
:1009D000EDB7FEB738960FB6F894FEBF0FBEEDBF69
:1009E00080E063E00E949000C6010E9474002091A4
:1009F0006E0130916F01C901880F991F820F931FFB
:100A000068E070E00E945506709561957F4F6E5CBE
:100A10006093B30080916E0190916F012DB73EB746
:100A2000285030400FB6F8943EBF0FBE2DBFEDB733
:100A3000FEB73196ADB7BEB712967C926E92119703
:100A400026E030E03383228343E351E0558344833F
:100A5000978386830E94680683018DB79EB70896A8
:100A60000FB6F8949EBF0FBE8DBFD8018D918D013A
:100A700090E00E944203E889F9890E171F07A9F741
:100A800020916E0130916F018091000190910101E0
:100A90008217930784F02D9A2C9880E068E00E94DA
:100AA000900089E391E00E947400809181008B7F27
:100AB0008093810025C020916E0130916F0180915B
:100AC00000019091010182179307ECF480910001DD
:100AD0009091010120916E0130916F010296821771
:100AE00093078CF080E068E00E9490008EE391E034
:100AF0000E947400809181008460809381002D9811
:100B00001092600122C0809100019091010120911A
:100B10006E0130916F01029682179307B4F42C9AFC
:100B200080E068E00E94900083E491E00E947400FD
:100B3000459A809181008B7F809381008091600134
:100B4000882319F485B5846085BD0E94FF008091DB
:100B500064018823D9F11092640181E060E00E9471
:100B6000900080910001909101012DB73EB728506F
:100B700030400FB6F8943EBF0FBE2DBFEDB7FEB7A5
:100B80003196ADB7BEB71296DC92CE921197938292
:100B90008282B582A482978386830E946806EDB71D
:100BA000FEB738960FB6F894FEBF0FBEEDBFC60174
:100BB0000E94740080E991E00197F1F760910001D3
:100BC0007091010188EE93E00E942D0B80916C01E1
:100BD0008823D9F081E06AE00E94900088E491E0E7
:100BE0000E94740020916E0130916F01C901880F3D
:100BF000991F820F931F68E070E00E945506709560
:100C000061957F4F6E5C6093B30080916D01882386
:100C100041F181E06AE00E9490008EE491E00E9440
:100C2000740000D000D000D0EDB7FEB73196ADB75C
:100C3000BEB712963C922E92119725E531E0338390
:100C40002283158214820E9499063F853093B30057
:100C50004DB75EB74A5F5F4F0FB6F8945EBF0FBEE9
:100C60004DBF80915B01882309F424CE10925B0173
:100C700081E063E00E94900086E691E00E947400AB
:100C800019CEAA1BBB1B51E107C0AA1FBB1FA61789
:100C9000B70710F0A61BB70B881F991F5A95A9F725
:100CA00080959095BC01CD01089597FB092E0726EC
:100CB0000AD077FD04D0E5DF06D000201AF4709545
:100CC00061957F4F0895F6F7909581959F4F089510
:100CD000AEE0B0E0EEE6F6E00C945F0C0D891E8904
:100CE0008F89988D97FF02C080E090E801979E83DE
:100CF0008D831A83098386E08C839E01255E3F4F96
:100D0000CE010196698D7A8DA9010E94B3064D81AD
:100D10005E8157FD0AC02F813885421753070CF4B6
:100D20009A01020F131FF80110822E96E4E00C9432
:100D30007B0CAEE0B0E0EFE9F6E00C94610C85E0EE
:100D40008C838B899C899A8389839E01295E3F4F7E
:100D5000CE0101966D897E89A9010E94140A2E9602
:100D6000E2E00C947D0CABE0B0E0E9EBF6E00C9433
:100D7000510C3C012B015A01FC0117821682838120
:100D800081FD03C06FEF7FEFC6C19AE0892E1E017F
:100D90000894211C311CF3012381F20123FD85916C
:100DA00023FF81912F01882309F4B2C1853239F4E0
:100DB00023FD859123FF81912F01853229F490E055
:100DC000B3010E94AA0BE7CF982FFF24EE249924A9
:100DD000FFE1FF15D0F09B3269F09C3228F490328D
:100DE00059F0933291F40EC09D3249F0903369F47A
:100DF00041E024C052E0F52A84E0F82A28C098E0B7
:100E0000F92A25C0E0E1FE2A22C0F7FC29C0892F7B
:100E100080538A3070F4F6FE05C0989C902C112403
:100E2000980E15C0E89CE02C1124E80EF0E2FF2A91
:100E30000EC09E3229F4F6FC6BC140E4F42A07C0D0
:100E40009C3619F450E8F52A02C0983649F4F201AC
:100E500023FD959123FF91912F01992309F0B8CF9C
:100E6000892F8554833018F08052833038F444E061
:100E700050E0A40EB51E5FE359830FC0933631F0E6
:100E8000933779F0933509F056C020C0F501808181
:100E9000898342E050E0A40EB51E610101E010E03C
:100EA00012C0F501C080D180F6FC03C06FEF7FEF68
:100EB00002C0692D70E042E050E0A40EB51EC601EC
:100EC0000E945D0B8C015FE7F52214C0F501C08024
:100ED000D180F6FC03C06FEF7FEF02C0692D70E098
:100EE00042E050E0A40EB51EC6010E94520B8C01D8
:100EF00050E8F52AF3FE07C01AC080E290E0B30183
:100F00000E94AA0BEA948E2D90E008171907A8F307
:100F10000EC0F601F7FC8591F7FE81916F0190E01C
:100F2000B3010E94AA0BE110EA9401501040011590
:100F3000110579F7EAC0943611F0993669F5F7FE94
:100F400008C0F501208131814281538184E090E025
:100F50000AC0F501808191819C01442737FD4095AD
:100F6000542F82E090E0A80EB91E9FE6F92257FFA9
:100F700009C050954095309521953F4F4F4F5F4F99
:100F8000E0E8FE2ACA01B901A1012AE030E00E948E
:100F9000F00BD82ED21840C0953729F41F2D1F7E94
:100FA0002AE030E01DC01F2D197F9F3661F0903779
:100FB00020F4983509F0ACC00FC0903739F098375D
:100FC00009F0A6C004C028E030E00AC0106114FD9A
:100FD000146020E130E004C014FD166020E132E02E
:100FE00017FF08C0F501608171818281938144E01F
:100FF00050E008C0F50180819181BC0180E090E063
:1010000042E050E0A40EB51EA1010E94F00BD82EC4
:10101000D2188FE7F82EF122F6FE0BC05EEFF52214
:10102000D91438F4F4FE07C0F2FC05C08FEEF822A4
:1010300002C01D2D01C0192DF4FE0DC0FE01ED0DE5
:10104000F11D8081803319F499EEF92208C01F5FE9
:10105000F2FE05C003C08F2D867809F01F5F0F2DAB
:10106000F3FC14C0F0FE0FC01E1510F09D2C0BC039
:101070009D2C9E0C911A1E2D06C080E290E0B301BB
:101080000E94AA0B1F5F1E15C0F304C01E1510F4AA
:10109000E11A01C0EE2404FF0FC080E390E0B30129
:1010A0000E94AA0B02FF1DC001FD03C088E790E06B
:1010B0000EC088E590E00BC0802F867891F001FF8C
:1010C00002C08BE201C080E2F7FC8DE290E0B30148
:1010D0000E94AA0B06C080E390E0B3010E94AA0B15
:1010E0009A94D914C0F3DA94F101ED0DF11D8081C9
:1010F00090E0B3010E94AA0BDD20A9F706C080E2B0
:1011000090E0B3010E94AA0BEA94EE20C1F743CE0F
:10111000F30166817781CB012B96E2E10C946D0C93
:10112000FC0120FD08C023FD05C022FF02C073831F
:101130006283518340830895EF92FF920F931F9330
:1011400044FF02C033E011C046FF02C034E00DC0CE
:10115000DB01FC01AA0FBB1FEE1FFF1F1094D1F78C
:101160006A0F7B1F8E1F9F1F31E0660F771F881F3E
:10117000991F3150D1F77B018C01E20EF11C011D4A
:10118000111DA8019701B701CA011F910F91FF908E
:10119000EF9008950F931F93CF93DF938C01C801B5
:1011A0000E94680BEC0197FD08C00E943F0B892B41
:1011B000B1F7CE01B8010E94D60BCE01DF91CF91DD
:1011C0001F910F910895A0E0B0E0E9EEF8E00C94D3
:1011D000590CEC01C62E5A01122F0E94680BAC016B
:1011E0008B3219F08D3251F41068CA9409F46DC035
:1011F000CE010E94680BAC0197FD67C06DEFD62E43
:10120000D1228D2D807301F54033F1F4CA9409F495
:1012100047C0CE010E94680BAC0197FD41C082E03F
:10122000D82A483711F0483559F480E4D82ACA94AE
:10123000B9F1CE010E94680BAC0199232CF430C0A7
:10124000D6FC02C080E1D82AEE24FF248701242F97
:101250002053283088F0D4FC09C02A3068F0D6FE2C
:1012600005C02F7D822F8151863028F0CA01BE0132
:101270000E94D60B12C02750C801B7014D2D0E9405
:101280009C087B018C0182E0D82ACA9461F0CE01CF
:101290000E94680BAC0197FFDACFD1FC04C015C0E7
:1012A000EE24FF248701D7FE08C010950095F09426
:1012B000E094E11CF11C011D111DC501B801A7013D
:1012C0002D2D0E94900881E001C080E0CDB7DEB7EF
:1012D000EAE00C94750CA0E2B0E0E1E7F9E00C94D0
:1012E000550C6C01A62E8A017901FE01319680E22F
:1012F000DF011D928A95E9F770E030E060E040E0A0
:1013000050E04F01A1E0B0E0F6018381F70183FDD9
:10131000259183FF21917F01222309F47EC02E3580
:1013200019F44115510569F1872F90E0841795074D
:1013300044F42D3551F12D3221F4332329F431E0D9
:1013400021C0332309F4622F322F832F869586958F
:101350008695F401E80FF11D832F87703D0102C0CF
:10136000660C771C8A95E2F72081262920833617A0
:1013700011F430E007C0361710F43F5FE6CF31506C
:10138000E4CF71E04F5F5F4FBFCF332319F08E8101
:1013900080628E83772359F0FE0131969E012F5D86
:1013A0003F4F808180958193E217F307D1F7BB24EB
:1013B000B3944E010894811C911CC6010E94680BD5
:1013C000AC0197FD22C0869586958695F401E80FBD
:1013D000F11D808190E09A012770307002C09595D0
:1013E00087952A95E2F780FD05C0CA01B6010E94E3
:1013F000D60B0BC00115110519F0D8014D938D01C5
:10140000AA94BB24AA20C9F602C0BB2031F401155E
:10141000110529F0F801108202C0EE24FF24C70153
:10142000A096EEE00C94710CA0E0B0E0EAE1FAE0E6
:101430000C94550C5C016B013A01FC011782168279
:101440008824EAC0812F90E00E943F0B892B21F075
:10145000C5010E94CA08E0C0153249F4F601F3FC48
:101460006591F3FE61916F01653269F415E2C50182
:101470000E94680B97FDDCC0181709F4CDC0B501B8
:101480000E94D60BDAC06A3219F0162F00E006C0AF
:10149000F3FC1591F3FE11916F0101E099240FC047
:1014A0000260692D70E080E090E040E20E949C08BC
:1014B000962EF601F3FC1591F3FE11916F01212F89
:1014C00020532A3068F301FD03C099249A9403C085
:1014D000992009F4B2C0183621F01C3699F4F601AF
:1014E0000BC0F601F3FC6591F3FE6191683619F0CB
:1014F0006F01162F07C008600460F3FC1591F3FE1E
:1015000011916F01112309F498C088E690E0612FD2
:1015100070E00E94470B892B09F48FC0802F00FFD9
:1015200003C0EE24FF2407C0F301E080F18022E035
:1015300030E0620E731E1E3651F4F501468157816C
:1015400060E070E0C701202F0E94900865C013364C
:1015500091F481FD02C099249394C5010E94680B07
:1015600097FD66C0E114F10419F0F70181937F0142
:101570009A9499F74FC01B3559F4C501692DA701FD
:1015800096010E946B096C01009709F043C03DC0B1
:10159000C5010E94CA0897FD4BC01F3659F110378C
:1015A00028F4143629F1193639F527C0133719F004
:1015B000153711F51DC0C5010E94680BEC0197FDA0
:1015C00011C00E943F0B892B29F0CE01B5010E946A
:1015D000D60B08C0E114F10419F0F701C1937F01A3
:1015E0009A9449F7E114F104A9F0F701108212C0AE
:1015F000006203C0006101C00064C501692DA7013C
:10160000202F0E94E308882329F4F5018381807349
:1016100079F413C000FF8394F501F380F601F3FC25
:101620001591F3FE11916F01112309F00BCF05C045
:10163000882019F42FEF3FEF02C0282D30E0C901B8
:10164000CDB7DEB7EEE00C94710CF999FECF92BDE8
:1016500081BDF89A992780B50895262FF999FECF74
:1016600092BD81BDF89A019700B4021639F01FBAF5
:1016700020BD0FB6F894FA9AF99A0FBE0895911109
:101680000DC1803219F089508550D0F70895FC01C2
:101690000590061621F00020D9F7C0010895319772
:1016A000CF010895FC010590615070400110D8F7FA
:1016B000809590958E0F9F1F0895FC01615070409A
:1016C00001900110D8F7809590958E0F9F1F089577
:1016D000CF93DF93EC014B8140FF1AC046FF0AC055
:1016E0004F7B4B838E819F8101969F838E838A815E
:1016F000282F2BC042FF13C0E881F9818081282F59
:10170000332727FD30952115310529F440624B839D
:101710002FEF3FEF1BC03196F983E88311C0EA85B4
:10172000FB85CE0109959C0197FF0AC09B812F5F25
:101730003F4F11F080E201C080E1892B8B83E8CF1D
:101740008E819F8101969F838E8330E0C901DF9156
:10175000CF9108950F931F93CF93DF938C01EB01EB
:101760008B8181FF1BC082FF0DC02E813F818C8148
:101770009D812817390764F4E881F9810193F98381
:10178000E88306C0E885F985802F0995892B31F417
:101790008E819F8101969F838E8302C00FEF1FEF82
:1017A000C801DF91CF911F910F9108959C01FB011A
:1017B000838180FF11C086FD0FC09FEF2F3F390747
:1017C00059F0228380648F7D83838681978101977E
:1017D0009783868330E002C02FEF3FEFC901089561
:1017E000FA01AA27283051F1203181F1E8946F9352
:1017F0006E7F6E5F7F4F8F4F9F4FAF4FB1E03ED0F8
:10180000B4E03CD0670F781F891F9A1FA11D680F95
:10181000791F8A1F911DA11D6A0F711D811D911DC8
:10182000A11D20D009F468943F912AE0269F11243D
:101830003019305D3193DEF6CF010895462F4770A1
:10184000405D4193B3E00FD0C9F7F6CF462F4F70FC
:10185000405D4A3318F0495D31FD4052419302D05A
:10186000A9F7EACFB4E0A695979587957795679500
:10187000BA95C9F700976105710508959B01AC0100
:101880000A2E06945795479537952795BA95C9F727
:10189000620F731F841F951FA01D08959927882725
:1018A00008952F923F924F925F926F927F928F9204
:1018B0009F92AF92BF92CF92DF92EF92FF920F93DF
:1018C0001F93CF93DF93CDB7DEB7CA1BDB0B0FB6E9
:1018D000F894DEBF0FBECDBF09942A8839884888A6
:1018E0005F846E847D848C849B84AA84B984C8843C
:1018F000DF80EE80FD800C811B81AA81B981CE0F33
:10190000D11D0FB6F894DEBF0FBECDBFED01089517
:04191000F894FFCF79
:10191400320045453130392050726F6A6563740076
:10192400436172726965204C65690053656E736F1B
:1019340072206E6F7420776F726B696E6700256416
:10194400002E00402B25642300434F4F4C00574189
:10195400524D00484F5421006C6F63616C007265F6
:0A1964006D6F746500253364000008
:00000001FF
